S0210000415652363444443332205854414C20616E6420455854434C4B2E737265632C
S11300000C9448000C9452000C9452000C9452002E
S11300100C9452000C9452000C9452000C94520014
S11300200C9452000C9452000C9452000C94520004
S11300300C9452000C9452000C9452000C945200F4
S11300400C9452000C9452000C9452000C945200E4
S11300500C9452000C9452000C9452000C945200D4
S11300600C9452000C9452000C9452000C945200C4
S11300700C9452000C9452000C9452000C945200B4
S11300800C9452000C9452000C9452000C945200A4
S113009011241FBECFEFCDBFDFE7DEBF0E94680093
S11300A00C947B000C9400006FE080E890E00E94C8
S11300B0750061E081E690E00E94750063E880E6E7
S11300C090E00E9475008091650080FDFCCF08954A
S11300D082E1809301040E945400E0E0F4E080E1B6
S11300E08583868382E08783F8CFDC0128ED209323
S10D00F034006C930895F894FFCFD8
S9030000FC
